:020000040000fa
:080000000002040000000000f2
:020000040000fa
:0400080006050000e9
:020000040000fa
:04000c0006050000e5
:020000040000fa
:0400100006050000e1
:020000040000fa
:0400140006050000dd
:020000040000fa
:0400180006050000d9
:020000040000fa
:04001c0006050000d5
:020000040000fa
:0400200006050000d1
:020000040000fa
:0400240006050000cd
:020000040000fa
:0400280006050000c9
:020000040000fa
:04002c00c802000006
:020000040000fa
:0400300006050000c1
:020000040000fa
:0400340008040000bc
:020000040000fa
:0400380006050000b9
:020000040000fa
:04003c006803000055
:020000040000fa
:0400400006050000b1
:020000040000fa
:04004400e6040000ce
:020000040000fa
:0400480006050000a9
:020000040000fa
:04004c0006050000a5
:020000040000fa
:0400500006050000a1
:020000040000fa
:04005400060500009d
:020000040000fa
:040058000605000099
:020000040000fa
:04005c000605000095
:020000040000fa
:040060000605000091
:020000040000fa
:04006400060500008d
:020000040000fa
:040068000605000089
:020000040000fa
:04006c000605000085
:020000040000fa
:040070000605000081
:020000040000fa
:04007400060500007d
:020000040000fa
:040078000605000079
:020000040000fa
:04007c000605000075
:020000040000fa
:040080000605000071
:020000040000fa
:04008400060500006d
:020000040000fa
:040088000605000069
:020000040000fa
:04008c000605000065
:020000040000fa
:040090000605000061
:020000040000fa
:04009400060500005d
:020000040000fa
:040098000605000059
:020000040000fa
:04009c000605000055
:020000040000fa
:0400a0000605000051
:020000040000fa
:0400a400060500004d
:020000040000fa
:0400a8000605000049
:020000040000fa
:0400ac000605000045
:020000040000fa
:0400b0000605000041
:020000040000fa
:0400b400060500003d
:020000040000fa
:0400b8000605000039
:020000040000fa
:0400bc000605000035
:020000040000fa
:0400c0000605000031
:020000040000fa
:0400c400060500002d
:020000040000fa
:0400c8000605000029
:020000040000fa
:0400cc000605000025
:020000040000fa
:0400d0000605000021
:020000040000fa
:0400d400060500001d
:020000040000fa
:0400d8000605000019
:020000040000fa
:0400dc000605000015
:020000040000fa
:0400e0000605000011
:020000040000fa
:0400e400060500000d
:020000040000fa
:0400e8000605000009
:020000040000fa
:0400ec000605000005
:020000040000fa
:0400f0000605000001
:020000040000fa
:0400f40006050000fd
:020000040000fa
:0400f80006050000f9
:020000040000fa
:0400fc0006050000f5
:020000040000fa
:0401000006050000f0
:020000040000fa
:0401040006050000ec
:020000040000fa
:0401080006050000e8
:020000040000fa
:04010c0006050000e4
:020000040000fa
:0401100006050000e0
:020000040000fa
:0401140006050000dc
:020000040000fa
:0401180006050000d8
:020000040000fa
:04011c0006050000d4
:020000040000fa
:0401200006050000d0
:020000040000fa
:0401240006050000cc
:020000040000fa
:0401280006050000c8
:020000040000fa
:04012c0006050000c4
:020000040000fa
:0401300006050000c0
:020000040000fa
:0401340006050000bc
:020000040000fa
:0401380006050000b8
:020000040000fa
:04013c0006050000b4
:020000040000fa
:0401400006050000b0
:020000040000fa
:0401440006050000ac
:020000040000fa
:0401480006050000a8
:020000040000fa
:0402080006050000e7
:020000040000fa
:04020c0006050000e3
:020000040000fa
:0402100006050000df
:020000040000fa
:0402140006050000db
:020000040000fa
:0402180006050000d7
:020000040000fa
:04021c0006050000d3
:020000040000fa
:0402200006050000cf
:020000040000fa
:0402240006050000cb
:020000040000fa
:0402280006050000c7
:020000040000fa
:04022c0006050000c3
:020000040000fa
:0402300006050000bf
:020000040000fa
:0402340006050000bb
:020000040000fa
:0402380006050000b7
:020000040000fa
:04023c0006050000b3
:020000040000fa
:0402400006050000af
:020000040000fa
:0402440006050000ab
:020000040000fa
:0402480006050000a7
:020000040000fa
:04024c0006050000a3
:020000040000fa
:04025000060500009f
:020000040000fa
:04025400060500009b
:020000040000fa
:040258000605000097
:020000040000fa
:04025c000605000093
:020000040000fa
:04026000060500008f
:020000040000fa
:04026400060500008b
:020000040000fa
:040268000605000087
:020000040000fa
:04026c000605000083
:020000040000fa
:04027000060500007f
:020000040000fa
:04027400060500007b
:020000040000fa
:040278000605000077
:020000040000fa
:04027c000605000073
:020000040000fa
:04028000060500006f
:020000040000fa
:04028400060500006b
:020000040000fa
:040288000605000067
:020000040000fa
:04028c000605000063
:020000040000fa
:04029000060500005f
:020000040000fa
:04029400060500005b
:020000040000fa
:040298000605000057
:020000040000fa
:04029c000605000053
:020000040000fa
:0402a000060500004f
:020000040000fa
:0402a400060500004b
:020000040000fa
:0402a8000605000047
:020000040000fa
:0402ac000605000043
:020000040000fa
:0402b000060500003f
:020000040000fa
:0402b400060500003b
:020000040000fa
:0402b8000605000037
:020000040000fa
:0402bc000605000033
:020000040000fa
:0402c000060500002f
:020000040000fa
:0402c400060500002b
:020000040000fa
:0402c8000605000027
:020000040000fa
:0402cc000605000023
:020000040000fa
:0402d000060500001f
:020000040000fa
:0402d400060500001b
:020000040000fa
:0402d8000605000017
:020000040000fa
:0402dc000605000013
:020000040000fa
:0402e000060500000f
:020000040000fa
:0402e400060500000b
:020000040000fa
:0402e8000605000007
:020000040000fa
:0402ec000605000003
:020000040000fa
:0402f00006050000ff
:020000040000fa
:0402f40006050000fb
:020000040000fa
:0402f80006050000f7
:020000040000fa
:0402fc0006050000f3
:020000040000fa
:0403000006050000ee
:020000040000fa
:0403040006050000ea
:020000040000fa
:0403080006050000e6
:020000040000fa
:04030c0006050000e2
:020000040000fa
:0403100006050000de
:020000040000fa
:0403140006050000da
:020000040000fa
:0403180006050000d6
:020000040000fa
:04031c0006050000d2
:020000040000fa
:0403200006050000ce
:020000040000fa
:0403240006050000ca
:020000040000fa
:0403280006050000c6
:020000040000fa
:04032c0006050000c2
:020000040000fa
:0403300006050000be
:020000040000fa
:0403340006050000ba
:020000040000fa
:0403380006050000b6
:020000040000fa
:04033c0006050000b2
:020000040000fa
:0403400006050000ae
:020000040000fa
:0403440006050000aa
:020000040000fa
:0403480006050000a6
:020000040000fa
:100400002f8420000e7f22000e01880000000000d3
:10041000000020000000e000020032000001200087
:1004200020028800140007007a0107000000e000a5
:1004300003003a00c08720000100200002003700be
:100440000000200001002000810f70000100320038
:1004500014000700000020000000e000020032004d
:100460000000020000000000b007020000000000d1
:100470000040da000000fe004440a9000000200017
:100480000000e0000300320000002000a00188000e
:100490004440a800000006008a1f78008b1f7800e7
:1004a0000000060091018800800478000000eb0045
:1004b0001a003700e284440032a0b4009905ba0063
:1004c000e284440032a0b4009906ba00e2844400f9
:1004d00032a0b4000006eb00476fde00fd07b2005b
:1004e000636ce10003003a00ebff07000000eb0043
:1004f0000a003700606ce10004003a00005deb0088
:100500008b05e900fdff3e00040037006168e10053
:10051000010032000086eb000b00070019c7ba008b
:100520001905ba000e04e00003003a000a00e000da
:10053000e0ff3a0000000600fe07b2009e018800be
:100540008a047800f5ff3700395dba008b05e900b1
:100550000c003200295dba008b05e900080032006a
:100560000c00e00003003a00e284440032a0b40032
:10057000f5ff370019ddba008b05e900faff3a00f4
:100580008904e800e184440032a0b40000000600c1
:10059000809fbe00829fbe003400f8000000200053
:1005a000a00188000400fa001000200060408800cc
:1005b0008420a900000a8000100798009e00900087
:1005c000c0072000808f50003c003400e2408000d3
:1005d000f04080009e0090000080500000f0a700d6
:1005e0000000ea0080017800404080008000780030
:1005f000600880000088b900000078000080510089
:1006000000f0a7000000ea00cf80de00c211dd008c
:1006100022822000028141000089be009e009000dd
:10062000f1408800e04080000000e800e0408800e1
:10063000e040800063006000e04088000028ef0098
:100640000228ef000000eb00000f78000c003700dc
:100650001e007800c200dd002082200000804000e3
:100660001001be00004080001140800002004000e8
:100670008380480000408800114088001e0fe80079
:100680001e007800e30f5000f1ff340000408000ae
:10069000114080004e09dd004200de0000007100c4
:1006a000c208de0000408800114088000041800040
:1006b00063006000004188000828ef000080fa0015
:1006c0003400f9004f01be004f00be00004006009c
:1006d000809fbe00829fbe003400f8000000200012
:1006e000a00188000400fa0010002000704088007b
:1006f00084a0a900200a8000100798009e009000a6
:10070000c0072000808f50003c003400b2408000c1
:10071000c04080009e0090000080500000f0a700c4
:100720000000ea00800178005040800080007800de
:10073000600880000088b900000078000080510047
:1007400000f0a7000000ea00cf80de00c211dd004b
:1007500022832000028141000089be009e0090009b
:10076000c1408800b04080000000e800b040880030
:10077000b040800063006000b04088000428ef00b3
:100780000628ef000000eb00000f78000c00370097
:100790001e007800c200dd002083200000804000a1
:1007a0001001be0020408000314080000200400067
:1007b0008380480020408800314088001e0fe800f8
:1007c0001e007800e30f5000f1ff3400204080004d
:1007d000314080004e09dd004200de000000710063
:1007e000c208de002040880031408800d0408000f0
:1007f00063006000d04088000a28ef000080fa0003
:100800003400f9004f01be004f00be00004006005a
:100810003600f800809fbe00829fbe00849fbe000d
:10082000869fbe003400f80000002000a001880070
:100830000c00fa008460a900a04080000000e800dd
:10084000a0408800a1408000803e2000808f5000a2
:1008500056003a0002408000134080002040800093
:10086000314080000200400083804800cd00070036
:10087000008fbe00024080001340800020408000b6
:1008800031408000800f5100818f59001b003100e2
:1008900022408000334080000040800011408000f2
:1008a0000000510081805900be0007001e01be00fb
:1008b0005900070002002000a34724000e01070092
:1008c00020079800310798002e009000be0090008d
:1008d000930007000000780081bb200000805000da
:1008e000cf80de00da010700804080000000e800d1
:1008f000804088001228ef00270037000240800067
:10090000134080002040800031408000800f510063
:10091000818f59001b003600024080001340800088
:10092000204080003140800000005100818059004b
:100930009c0007001e01be003700070002002000d7
:10094000a3472400ec0007004007980051079800d7
:100950004e009000de0090007100070080007800db
:1009600080bb200000804000cf80de00b80107007f
:10097000904080000000e800904088001028ef00c0
:100980000500370080bb200001002000b0010700f7
:100990001028ef001228ef000028ef000228ef00d7
:1009a0000428ef000628ef001428ef000080fa006a
:1009b0003400f9004f03be004f02be004f01be00dd
:1009c0004f00be003600f90000400600801f78008e
:1009d0003400f80000002000a00188000000fa00a8
:1009e00084e0a900404080000000e800404088000a
:1009f000504080000000e800504088000080fa006d
:100a00003400f9004f007800004006000040da0092
:100a10000000fe0000000500889fbe008a9fbe0007
:100a20008c1f78009c000700a300330003866c0035
:100a30006450e1002e0032006420e10033003200f7
:100a40006150e1002f0032006120e10031003200ee
:100a500085855500eb07b000090020000804200040
:100a6000050037000804440089844c000a00310066
:100a70000603430087834b000001530081815b0024
:100a8000f8ff33000203be000800a0000804440081
:100a900089844c00f6ff3900c639dd0083017300fc
:100aa00001003200130020008904d1000884d30023
:100ab0000998a300050032000800a7000300a00069
:100ac0008904d1000884d3008b05e8008904d10093
:100ad0000884d3000001eb000281d200330007003c
:100ae00001f0a1000cf0a70001f0a0007b0037008e
:100af0006420e1007d0032000801be000200be005b
:100b0000f7ff37006120e100780032006000b80094
:100b1000f3ff37000000200001f82700f0ff370046
:100b20000001be00470007000470a70003f0a10009
:100b30006509b100160032000d0035006828e1009b
:100b400006003500f0ff2f00f1ff27000300e00052
:100b500013003b00010028000000050000004000d9
:100b6000818048008502e900fcff3a000800370058
:100b7000f88f420002003c008000eb0000000500fe
:100b80008100d1000080d3008502e800fcff3a001c
:100b90000300e00002003b0060001000e08018004d
:100ba000000006006011b8008700370081002000b7
:100bb000618055000b003d000b00200061fe2f00fe
:100bc0000100e1001d0034008281710061016400b8
:100bd0008904d1000884d3000000e800faff3a003d
:100be00071002000610064000300700002006000da
:100bf0000900320061044400e0844c000988a5002b
:100c0000050032008b05e8006808e10002003a00a8
:100c10008904d1000884d300f20f20000258e100bb
:100c200005003d00c75ddd00f907b2008980750051
:100c300008007800000006000bf827008b00780001
:100c400000000500c70ade00f107b200f50fb20090
:100c500008003200e1cf4200020032000170a00023
:100c600024000500810f7000010032000408050017
:100c700044000500810f700002003a0014000500d6
:100c80008502e9000000400081c04800fcff3b00f5
:100c90000170a000240005000004be00e9ff070069
:100ca0000003be000405be000200be00e5ff070011
:100cb000844f7500000006000200be006450e10091
:100cc000050036006420e100020036000968a30038
:100cd00001003a000800be000160a0004f06780045
:100ce0004f05be004f04be0000000600f0ff2f00bd
:100cf000f1ff2700f9ff3700889fbe008a9fbe00e2
:100d00008c1f7800e4ff0700ebff330003866c00c4
:100d10006450e100240032006420e100270032002a
:100d20006150e100220032006120e1002100320028
:100d30008b854200eb07b1000134b800003ab800df
:100d40000804420089844a00013ab8000030b80023
:100d50008880400009014a00040033000000400080
:100d600081804800020149008b05e900c909dd00c6
:100d7000830170000100320013002000c814de005f
:100d80004814dd004709de001200b200c808de008a
:100d90000884700085ff070001f0a1000cf0a70097
:100da00001f0a000cdff37006120e100cfff32004d
:100db0000801be000200be00f7ff37006150e100ed
:100dc000fcff3a00c9ff3700889fbe008a9fbe0023
:100dd000008270000402710004827100260032005b
:100de0000004be000200be006011b8006b092000c4
:100df000950220000182cf000a0039000541b100b0
:100e00000082cf00070039000541b1000982cf0000
:100e1000040039000541b1000882cf00010039000b
:100e20000541b10005425200120032000a003b00a9
:100e300082817100610164008100d1000080d300d3
:100e40008984d3000884d3008b05e8000442e800bd
:100e5000f7ff3a00070037000804440089844c007b
:100e600000004800818048008b05e9000442e90049
:100e7000f9ff3a004dff07004f05be004f04be00ca
:040e80000000060068
:020000040000fa
:100e84000000fa00213a8000f08f2f0000806000fb
:100e9400203a8800f0ff2900601988000030200003
:100ea40040168800cca2a900113a8000f00b200063
:100eb400008160006004200071052000237420007c
:100ec4008049780081497800824978007134800033
:100ed40000fe2f00008060000030a0007034880005
:100ee40071348000f00f2e0080806000009020009c
:100ef40001007000703488003136800000fe2f003d
:100f0400008060002001b30030368800103a800071
:100f1400000178000260a000600420007105200038
:100f24002374200080497800814978008249780040
:100f34000080fa00000006000000fa009420a900d6
:100f440094a0a90080bb2000010020003f000700fe
:100f54000002200060168800fdff37000000fa0040
:100f64000421ef00f0e72300100888000021ef00bf
:100f74008460a90005e1a8000c28ef000e28ef000a
:100f8400bfff07001b0007003c00070080bb2000d8
:100f9400010020002d0007009420a80094a0a800c0
:100fa40005003700000000000300370000000000c7
:100fb400010037000000000060408000e10f500095
:100fc400f8ff3a0070408000e10f5000f7ff3a004c
:100fd4009460a80080408000e50f500003003200b8
:100fe40090408000e50f5000f2ff3a00d2ff070066
:100ff400f1ff37000000fa0000012000900888008b
:10100400f0c32900700888000a21ef008500a900b8
:1010140000012800900888008421ef0080bb200094
:10102400100c880080bb2000000c88008461a8009c
:10103400210c800080ff2f00008060006000b3005e
:10104400200c88000080fa00000006000400fa006a
:10105400008fbe001e007800000c88000080fa009b
:10106400000006000200fa00000f78001e0078005d
:10107400000c88000080fa00000006000000fa005e
:101084006aa0a8006ac0a8000003200080088800a5
:101094000080eb00600888000621ef0084e0a900ce
:1010a400000328008008880094e0a8004221ef0093
:1010b4004021ef0042e1a800110a800080ff2f00c8
:1010c400008060000010a000100a88004621ef0094
:1010d4004421ef0046e1a800310a800080ff2f0080
:1010e400008060000010a000300a88000080fa0030
:0410f40000000600f2
:020000040000fa
:1010f8002208000020000000000000000008000096
:0c110800220000000000000000000000b9
:020000040000fa
:020000040001f9
:0457f8000ff90000a5
:020000040000fa
:020000040001f9
:0457fc007f3f0000eb
:00000001FF
